{
  "contractName": "VendingMachine",
  "abi": [
    {
      "inputs": [],
      "payable": false,
      "stateMutability": "nonpayable",
      "type": "constructor"
    },
    {
      "anonymous": false,
      "inputs": [
        {
          "indexed": true,
          "internalType": "address",
          "name": "purchaser",
          "type": "address"
        },
        {
          "indexed": false,
          "internalType": "uint256",
          "name": "amount",
          "type": "uint256"
        }
      ],
      "name": "Purchase",
      "type": "event"
    },
    {
      "constant": true,
      "inputs": [
        {
          "internalType": "address",
          "name": "",
          "type": "address"
        }
      ],
      "name": "cupcakeBalances",
      "outputs": [
        {
          "internalType": "uint256",
          "name": "",
          "type": "uint256"
        }
      ],
      "payable": false,
      "stateMutability": "view",
      "type": "function"
    },
    {
      "constant": true,
      "inputs": [],
      "name": "owner",
      "outputs": [
        {
          "internalType": "address",
          "name": "",
          "type": "address"
        }
      ],
      "payable": false,
      "stateMutability": "view",
      "type": "function"
    },
    {
      "constant": false,
      "inputs": [
        {
          "internalType": "uint256",
          "name": "amount",
          "type": "uint256"
        }
      ],
      "name": "refill",
      "outputs": [],
      "payable": false,
      "stateMutability": "nonpayable",
      "type": "function"
    },
    {
      "constant": false,
      "inputs": [
        {
          "internalType": "uint256",
          "name": "amount",
          "type": "uint256"
        }
      ],
      "name": "purchase",
      "outputs": [],
      "payable": true,
      "stateMutability": "payable",
      "type": "function"
    }
  ],
  "bytecode": "0x608060405234801561001057600080fd5b50336000806101000a81548173ffffffffffffffffffffffffffffffffffffffff021916908373ffffffffffffffffffffffffffffffffffffffff1602179055506064600160003073ffffffffffffffffffffffffffffffffffffffff1673ffffffffffffffffffffffffffffffffffffffff16815260200190815260200160002081905550610530806100a56000396000f3fe60806040526004361061003f5760003560e01c80638da5cb5b14610044578063ca9d07ba1461009b578063e18a7b92146100d6578063efef39a11461013b575b600080fd5b34801561005057600080fd5b50610059610169565b604051808273ffffffffffffffffffffffffffffffffffffffff1673ffffffffffffffffffffffffffffffffffffffff16815260200191505060405180910390f35b3480156100a757600080fd5b506100d4600480360360208110156100be57600080fd5b810190808035906020019092919050505061018e565b005b3480156100e257600080fd5b50610125600480360360208110156100f957600080fd5b81019080803573ffffffffffffffffffffffffffffffffffffffff1690602001909291905050506102a0565b6040518082815260200191505060405180910390f35b6101676004803603602081101561015157600080fd5b81019080803590602001909291905050506102b8565b005b6000809054906101000a900473ffffffffffffffffffffffffffffffffffffffff1681565b6000809054906101000a900473ffffffffffffffffffffffffffffffffffffffff1673ffffffffffffffffffffffffffffffffffffffff163373ffffffffffffffffffffffffffffffffffffffff1614610250576040517f08c379a000000000000000000000000000000000000000000000000000000000815260040180806020018281038252601a8152602001807f4f6e6c7920746865206f776e65722063616e20726566696c6c2e00000000000081525060200191505060405180910390fd5b80600160003073ffffffffffffffffffffffffffffffffffffffff1673ffffffffffffffffffffffffffffffffffffffff1681526020019081526020016000206000828254019250508190555050565b60016020528060005260406000206000915090505481565b670de0b6b3a7640000810234101561031b576040517f08c379a000000000000000000000000000000000000000000000000000000000815260040180806020018281038252602781526020018061049f6027913960400191505060405180910390fd5b80600160003073ffffffffffffffffffffffffffffffffffffffff1673ffffffffffffffffffffffffffffffffffffffff1681526020019081526020016000205410156103b3576040517f08c379a00000000000000000000000000000000000000000000000000000000081526004018080602001828103825260368152602001806104c66036913960400191505060405180910390fd5b80600160003073ffffffffffffffffffffffffffffffffffffffff1673ffffffffffffffffffffffffffffffffffffffff1681526020019081526020016000206000828254039250508190555080600160003373ffffffffffffffffffffffffffffffffffffffff1673ffffffffffffffffffffffffffffffffffffffff168152602001908152602001600020600082825401925050819055503373ffffffffffffffffffffffffffffffffffffffff167f2499a5330ab0979cc612135e7883ebc3cd5c9f7a8508f042540c34723348f632826040518082815260200191505060405180910390a25056fe596f75206d75737420706179206174206c65617374203120455448207065722063757063616b654e6f7420656e6f7567682063757063616b657320696e2073746f636b20746f20636f6d706c6574652074686973207075726368617365a265627a7a723158203ced5f138e804a73542170b2271012ee98af957416b509d27e4da45e9520251664736f6c63430005100032",
  "source": "pragma solidity >=0.4.25 <0.9.0;\r\n\r\ncontract VendingMachine {\r\n    event Purchase(address indexed purchaser, uint256 amount);\r\n\r\n    address public owner;\r\n    mapping(address => uint) public cupcakeBalances;\r\n\r\n    constructor() public {\r\n        owner = msg.sender;\r\n        cupcakeBalances[address(this)] = 100;\r\n    }\r\n\r\n    function refill(uint amount) public {\r\n        require(msg.sender == owner, \"Only the owner can refill.\");\r\n        cupcakeBalances[address(this)] += amount;\r\n    }\r\n\r\n    function purchase(uint amount) public payable {\r\n        require(\r\n            msg.value >= amount * 1 ether,\r\n            \"You must pay at least 1 ETH per cupcake\"\r\n        );\r\n        require(\r\n            cupcakeBalances[address(this)] >= amount,\r\n            \"Not enough cupcakes in stock to complete this purchase\"\r\n        );\r\n        cupcakeBalances[address(this)] -= amount;\r\n        cupcakeBalances[msg.sender] += amount;\r\n        emit Purchase(msg.sender, amount);\r\n    }\r\n}\r\n",
  "sourcePath": "C:\\Users\\Administrator\\meta-coin\\contracts\\VendingMachine.sol",
  "compiler": {
    "name": "solc",
    "version": "0.5.16+commit.9c3226ce.Emscripten.clang"
  },
  "schemaVersion": "3.4.12",
  "updatedAt": "2023-03-02T00:26:38.847Z",
  "devdoc": {
    "methods": {}
  },
  "userdoc": {
    "methods": {}
  }
}